:100000000C9468000C9490000C9490000C94900058
:100010000C9490000C9490000C9490000C94900020
:100020000C9490000C9490000C9490000C94900010
:100030000C9490000C9490000C9490000C94900000
:100040000C94AB020C9490000C9479020C94530223
:100050000C9490000C9490000C9490000C949000E0
:100060000C9490000C9490000000000024002700E5
:100070002A000000000023002600290000000000E4
:10008000250028002B0004040404040404040202D4
:100090000202020203030303030302020301020438
:1000A00008102040800102040810200102040810FA
:1000B0002040804000000009000302000004050801
:1000C000000000000000000000000000F502140520
:1000D00011241FBECFEFD8E0DEBFCDBF22E0A6E5E2
:1000E000B1E001C01D92AB30B207E1F711E0A0E032
:1000F000B1E0E6EFFEE002C005900D92A635B10733
:10010000D9F710E0C7E6D0E004C02197FE010E94B5
:100110007605C636D107C9F70E9469030C946E07AD
:100120000C940000AF92BF92CF92DF92EF92FF92B9
:100130000F931F93CF93DF936C017B018B01040F0F
:10014000151FEB015E01AE18BF08C017D10759F0AB
:100150006991D601ED91FC910190F081E02DC601ED
:100160000995892B79F7C501DF91CF911F910F91E7
:10017000FF90EF90DF90CF90BF90AF900895FC017B
:10018000538D448D252F30E0842F90E0821B930BFC
:10019000541710F0CF96089501970895FC01918DA2
:1001A000828D981761F0A28DAE0FBF2FB11D5D96A5
:1001B0008C91928D9F5F9F73928F90E008958FEF47
:1001C0009FEF0895FC01918D828D981731F0828DFB
:1001D000E80FF11D858D90E008958FEF9FEF089552
:1001E000FC01918D228D892F90E0805C9F4F821BB6
:1001F00091098F739927089584E691E00E94F00099
:1002000021E0892B09F420E0822F089580E090E01E
:10021000892B29F00E94FC0081110C9400000895A4
:10022000FC01A48DA80FB92FB11DA35ABF4F2C916B
:10023000848D90E001968F739927848FA689B78962
:100240002C93A089B1898C91837080648C93938D59
:10025000848D981306C00288F389E02D80818F7DFC
:1002600080830895EF92FF920F931F93CF93DF93B4
:10027000EC0181E0888F9B8D8C8D98131AC0E889E2
:10028000F989808185FF15C09FB7F894EE89FF89B1
:100290006083E889F98980818370806480839FBF4F
:1002A00081E090E0DF91CF911F910F91FF90EF904F
:1002B0000895F62E0B8D10E00F5F1F4F0F7311275F
:1002C000E02E8C8D8E110CC00FB607FCFACFE8899A
:1002D000F989808185FFF5CFCE010E941001F1CF11
:1002E000EB8DEC0FFD2FF11DE35AFF4FF0829FB70E
:1002F000F8940B8FEA89FB8980818062CFCFCF93FE
:10030000DF93EC01888D8823B9F0AA89BB89E8893D
:10031000F9898C9185FD03C0808186FD0DC00FB6E3
:1003200007FCF7CF8C9185FFF2CF808185FFEDCF61
:10033000CE010E941001E9CFDF91CF910895843062
:1003400081F028F48230E9F08330F9F008958830A4
:1003500071F0893091F08530B9F4809180008F7D03
:1003600003C0809180008F778093800008958091F2
:10037000B0008F778093B00008958091B0008F7D9A
:10038000F9CF84B58F7784BD089584B58F7DFBCF79
:100390001F93CF93DF93E1ECF0E09491EAEAF0E071
:1003A000D491E3E9F0E0C491CC23B9F0182F99235C
:1003B00019F0892F0E949F01EC2FF0E0EE0FFF1F34
:1003C000E458FF4FA591B4918FB7F894EC911111B7
:1003D00008C0D095DE23DC938FBFDF91CF911F91B2
:1003E0000895DE2BF8CF3FB7F89480915701909194
:1003F0005801A0915901B0915A0126B5A89B05C09A
:100400002F3F19F00196A11DB11D3FBFBA2FA92F93
:10041000982F8827BC01CD01620F711D811D911D90
:1004200042E0660F771F881F991F4A95D1F70895FC
:10043000FC0101900020E9F73197AF01481B590BEF
:10044000BC0184E691E00C949200CF93DF93EC0121
:100450008091010290910202009759F020910302CD
:10046000309104022C173D0720F081E0DF91CF91FD
:100470000895BE016F5F7F4F0E94A106009789F02B
:100480009093020280930102D0930402C09303026E
:100490002091050230910602232B39F7FC011082CE
:1004A000E4CF80E0E3CF1F920F920FB60F9211249A
:1004B0002F933F934F935F936F937F938F939F936C
:1004C000AF93BF93EF93FF9384E691E00E941001F6
:1004D000FF91EF91BF91AF919F918F917F916F911C
:1004E0005F914F913F912F910F900FBE0F901F90F2
:1004F00018951F920F920FB60F9211242F938F937E
:100500009F93EF93FF93E0917401F09175018081C7
:10051000E0917A01F0917B0182FD1BC09081809176
:100520007D018F5F8F7320917E01821741F0E091F2
:100530007D01F0E0EC59FE4F958F80937D01FF9196
:10054000EF919F918F912F910F900FBE0F901F9061
:1005500018958081F4CF1F920F920FB60F9211243D
:100560002F933F938F939F93AF93BF9380915B01A2
:1005700090915C01A0915D01B0915E0130915601B6
:1005800023E0230F2D3768F126E8230F0296A11DE3
:10059000B11D2093560180935B0190935C01A09361
:1005A0005D01B0935E018091570190915801A09137
:1005B0005901B0915A010196A11DB11D80935701B7
:1005C00090935801A0935901B0935A01BF91AF91F4
:1005D0009F918F913F912F910F900FBE0F901F9081
:1005E00018950196A11DB11DD4CF109267011092EC
:1005F000660188EE93E0A0E0B0E0809368019093FC
:100600006901A0936A01B0936B018AE091E0909335
:1006100065018093640185EC90E090937101809373
:10062000700184EC90E0909373018093720180ECF0
:1006300090E0909375018093740181EC90E0909329
:1006400077018093760182EC90E09093790180931A
:10065000780186EC90E090937B0180937A01109270
:100660007D0110927E0110927F0110928001109204
:1006700002021092010210920402109203021092E0
:1006800006021092050290E080E00E94250220916F
:10069000010230910202811113C02115310519F0B8
:1006A000C9010E94180610920202109201021092D3
:1006B000060210920502109204021092030208959D
:1006C00010920602109205026CE271E0C9010C94CE
:1006D0006707CF93DF93CDB7DEB7A1970FB6F89436
:1006E000DEBF0FBECDBF789484B5836084BD85B571
:1006F000836085BD80916E00816080936E0082E092
:10070000809381008091810081608093810080913D
:1007100080008160809380008091B100846080932C
:10072000B1008091B00081608093B00087E8809331
:100730007A001092C1005AEA252E50E0352EF101C0
:10074000249163E9E62E60E0F62EF7018491882378
:1007500099F090E0880F991FFC01E859FF4FA5918F
:10076000B491FC01E458FF4F859194918FB7F894B0
:100770009C91292B2C938FBF80E00E94C8010E947E
:10078000F3012B013C0138EE832E33E0932EA12C94
:10079000B12C0E94F3016419750986099709683E16
:1007A000734081059105A8F3F1E08F1A9108A10823
:1007B000B10828EE420E23E0521E611C711C811408
:1007C0009104A104B10429F7E0917401F09175013D
:1007D00082E08083E0917001F09171011082E091DC
:1007E0007201F09173018FEC808310927C01E09193
:1007F0007801F091790186E08083E0917601F091B3
:100800007701808188698083E0917601F09177019A
:1008100080818F7D808382E390E00E94250288E1C1
:1008200091E00E9418028AE291E00E9418029AE088
:10083000892E912CA12CB12C20E0C22E20E0D22EAA
:100840008FB7F89440905B0150905C0160905D011F
:1008500070905E018FBF8091600190916101A091C5
:100860006201B0916301A3019201281B390B4A0B6D
:100870005B0BDA01C901843F9140A105B10508F481
:100880004BC040926001509261016092620170928F
:100890006301E1ECF0E08491F1010491F70114911E
:1008A000112309F451C081110E949F01E12FF0E052
:1008B000EE0FFF1FEE58FF4FA591B4918C910823C6
:1008C00031E020E009F430E0832F922FF1E08F2710
:1008D0000E94C8018DE291E00E94180219A28E01C7
:1008E0000F5D1F4FC301B201A50194010E94540581
:1008F00029013A01605DF80162938F0141145104AE
:100900006104710479F7309719F0CF010E94180241
:100910008AE291E00E94180284E691E00E94F000D1
:10092000892BB1F184E691E00E94CE008A3011F06B
:100930008D3069F48091050290910602892B61F354
:10094000F1E0F0935F01E8CF90E080E0BFCF00914D
:1009500005021091060289831A820F5F1F4FC8019A
:100960000E9425028823C1F22091010230910202E7
:100970008091050290910602BE016F5F7F4F820F4A
:10098000931F0E9467071093060200930502C4CFCD
:1009900080915F01882391F18AE491E00E9418021E
:1009A000409105025091060260910102709102028D
:1009B00084E691E00E9492008AE291E00E9418028F
:1009C00090E080E00E942502209101023091020215
:1009D000811120C02115310519F0C9010E941806A6
:1009E0001092020210920102109206021092050269
:1009F000109204021092030210925F01C114D104FC
:100A000009F41ECF0E94FC00882309F419CF0E942C
:100A1000000016CF10920602109205026CE271E0FF
:100A2000C9010E946707E8CF8091010290910202FC
:100A3000009711F00C94180608952F923F924F9250
:100A40005F926F927F928F929F92AF92BF92CF925E
:100A5000DF92EF92FF920F931F93CF93DF93CDB767
:100A6000DEB7CA1BDB0B0FB6F894DEBF0FBECDBFDF
:100A700009942A88398848885F846E847D848C84B0
:100A80009B84AA84B984C884DF80EE80FD800C81B9
:100A90001B81AA81B981CE0FD11D0FB6F894DEBF9C
:100AA0000FBECDBFED010895A1E21A2EAA1BBB1BFC
:100AB000FD010DC0AA1FBB1FEE1FFF1FA217B3072A
:100AC000E407F50720F0A21BB30BE40BF50B661F40
:100AD000771F881F991F1A9469F760957095809504
:100AE00090959B01AC01BD01CF010895EE0FFF1F52
:100AF0000590F491E02D09940F931F93CF93DF930A
:100B00008230910510F482E090E0E0910902F091CA
:100B10000A0230E020E0B0E0A0E0309799F421151F
:100B2000310509F44AC0281B390B24303105D8F5AA
:100B30008A819B816115710589F1FB019383828311
:100B4000FE0111C04081518102811381481759076C
:100B5000E0F04817590799F4109761F012960C933A
:100B6000129713961C933296CF01DF91CF911F916C
:100B70000F9108950093090210930A02F4CF2115F2
:100B8000310551F04217530738F0A901DB019A01F2
:100B9000BD01DF01F801C1CFEF01F9CF90930A0247
:100BA00080930902CDCFFE01E20FF31F8193919351
:100BB0002250310939832883D7CF20910702309101
:100BC0000802232B41F4209102013091030130935C
:100BD00008022093070220910001309101012115A4
:100BE000310541F42DB73EB7409104015091050104
:100BF000241B350BE0910702F0910802E217F3077E
:100C0000A0F42E1B3F0B2817390778F0AC014E5F7C
:100C10005F4F2417350748F04E0F5F1F50930802AF
:100C200040930702819391939FCFF0E0E0E09CCF47
:100C3000CF93DF930097E9F0FC0132971382128281
:100C4000A0910902B0910A02ED0130E020E0109776
:100C5000A1F420813181820F931F209107023091EE
:100C600008022817390709F061C0F0930802E093E1
:100C70000702DF91CF910895EA01CE17DF07E8F56B
:100C80004A815B819E0141155105B1F7E901FB8362
:100C9000EA8349915991C40FD51FEC17FD0761F400
:100CA000808191810296840F951FE9019983888341
:100CB000828193819B838A83F0E0E0E012968D919C
:100CC0009C9113970097B9F52D913C911197CD0107
:100CD0000296820F931F2091070230910802281775
:100CE000390739F6309751F510920A02109209022D
:100CF000B0930802A0930702BCCFD383C283408184
:100D00005181840F951FC817D90761F44E5F5F4F5B
:100D100088819981480F591F518340838A819B8123
:100D2000938382832115310509F0B0CFF0930A0235
:100D3000E09309029ECFFD01DC01C0CF1382128235
:100D4000D7CFB0E0A0E0E7EAF6E00C941F058C01F5
:100D5000009751F4CB010E947C058C01C801CDB7EE
:100D6000DEB7E0E10C943B05FC01E60FF71F9C01A8
:100D700022503109E217F30708F49DC0D901CD9143
:100D8000DC911197C617D70798F0C530D10530F31D
:100D9000CE0104978617970708F3C61BD70B229737
:100DA000C193D1936D937C93CF010E941806D6CF47
:100DB0005B01AC1ABD0A4C018C0E9D1EA09109026C
:100DC000B0910A02512C412CF12CE12C109731F5F5
:100DD00080910702909108028815990509F05CC07E
:100DE0004616570608F058C0809100019091010105
:100DF000009741F48DB79EB74091040150910501D1
:100E0000841B950BE817F90708F055C0F09308020A
:100E1000E0930702F90171836083A0CF8D919C91CB
:100E2000119712966C90129713967C901397A815B1
:100E3000B90559F56C0142E0C40ED11CCA14DB049B
:100E400020F1AC014A195B09DA011296159780F07E
:100E50006282738251834083D9016D937C93E11444
:100E6000F10471F0D7011396FC93EE93129776CFAD
:100E700022968C0F9D1FF90191838083F301EFCFA0
:100E8000F0930A02E093090269CF4816590608F464
:100E90002C017D01D3019ACFCB010E947C057C01FE
:100EA000009749F0AE01B8010E945E07C8010E9498
:100EB0001806870153CF10E000E050CFFB01DC01A2
:100EC00002C001900D9241505040D8F70895FB01A7
:100ED000DC0101900D920020E1F7089510E0C7E6D3
:100EE000D0E004C0FE010E9476052196C836D107E5
:060EF000C9F7F894FFCFE2
:100EF60000000B0280000000000032019200BF00DB
:100F06007F01F000CE00E2000A426F6F7420766522
:100F16007273696F6E20322E30000D0A00426C69C2
:100F26006E6B2076322E3020617469766F2E206DBE
:100F3600696C6C697328293A200052656365626999
:060F4600646F3A20000078
:00000001FF
